:100000000C9431070C9478070C9478070C947807BB
:100010000C9478070C9478070C9478070C94780764
:100020000C9478070C9478070C94812A0C94552B27
:100030000C94F8240C9478070C9478070C947807A7
:100040000C9478070C9478070C9478070C94780734
:100050000C9478070C944F250C9478070C9478072F
:100060000C9478070C9478070C9478070C94780714
:100070000C9478070C9478070C9478070C94780704
:100080000C9478070C9478070C9478070C947807F4
:100090000C9478070C9478070C9478070C947807E4
:1000A0000C9478070C9478070C9478076173756149
:1000B000645C00736D623A2F2F77706370617065B6
:1000C000726375742E777063617265792E61642E28
:1000D0006173752E6564752F5750435F4772616475
:1000E000005C5C77706370617065726375742E7705
:1000F0007063617265792E61642E6173752E65641B
:1001000075000101E30104313530307C43726564D0
:10011000656E7469616C204D616E007E626561730D
:100120006C65792A666C6174732B00777063626901
:100130006F730043686172676564446F67323000B3
:100140004E657420757365204F3A205C5C77706350
:1001500073772E777063617265792E61642E617397
:10016000752E6564755C7377202F757365723A61BF
:100170007375726974655C77707265656373004E40
:1001800065742075736520463A205C5C77706377F0
:1001900064732D62612E777063617265792E61647C
:1001A0002E6173752E6564755C44415441202F7532
:1001B0007365723A617375726974655C77707265A4
:1001C00065637300636420496D616765732F4D61DA
:1001D0006E75616C00663A00436D64202F632031B8
:1001E000332D01012B00436D64202F632031322D0C
:1001F00001012B00436D64202F632031312D01015B
:100200002B00436D64202F632031302D01012B0022
:10021000436D64202F632030392D01012B00436D85
:1002200064202F632030382D01012B00436D6420A2
:100230002F632030372D01012B00436D64202F6385
:100240002030362D01012B00436D64202F632030B8
:10025000352D01012B00436D64202F632030342D98
:1002600001012B00436D64202F632030332D0101E9
:100270002B00436D64202F632030322D01012B00B1
:10028000436D64202F632030312D01012B00735DFD
:10029000755D765D6C5D6D5D2A000151745D4D008C
:1002A0004E00655D665D675D2B000000000000008C
:1002B000625D635D645D00000000520000005F5DF0
:1002C000605D615D5800500051004F002700000044
:1002D0006E5D0000010001000100725D715D705DE6
:1002E0000100010001000100010001000100010006
:1002F00000000000000001000100010000000000FB
:1003000001000000695D6A5D6B5D01000100010094
:100310000100685D00006F5D000044454255473AAA
:100320002064697361626C65642E0A00444542551D
:10033000473A20656E61626C65642E0A0000000019
:1003400000000000002A2B28000000000000000030
:10035000000000000000000029000000002C1E34F6
:1003600020212224342627252E362D3738271E1FFC
:10037000202122232425263333362E37381F040527
:10038000060708090A0B0C0D0E0F10111213141595
:10039000161718191A1B1C1D2F3130232D35040573
:1003A000060708090A0B0C0D0E0F10111213141575
:1003B000161718191A1B1C1D2F3130354C00000060
:1003C000000000000000000000000000000000002D
:1003D000000000000000000000000000000000001D
:1003E000007E0F00D4FFFFFFC7000000780A002541
:1003F000303862003A200025303258000A722F63EC
:100400002030313233343536370A006D6B5F776810
:1004100065656C5F74696D655F746F5F6D61782091
:100420003D2025640A006D6B5F776865656C5F6DC4
:1004300061785F7370656564203D2025640A006DF6
:100440006B5F74696D655F746F5F6D6178203D20CF
:1004500025640A006D6B5F6D61785F73706565641C
:10046000203D2025640A006D6B5F696E74657276AD
:10047000616C203D2025640A006D6B5F64656C61D2
:1004800079203D2025640A006D6B5F776865656C97
:100490005F74696D655F746F5F6D6178203D2025C5
:1004A000640A006D6B5F776865656C5F6D61785F8E
:1004B0007370656564203D2025640A006D6B5F7470
:1004C000696D655F746F5F6D6178203D2025640AFA
:1004D000006D6B5F6D61785F7370656564203D20B2
:1004E00025640A006D6B5F696E74657276616C20BD
:1004F0003D2025640A006D6B5F64656C6179203D69
:100500002025640A000A00257500363A20776865C0
:10051000656C5F74696D655F746F5F6D61783A20BB
:10052000000A00257500353A20776865656C5F6DB7
:1005300061785F73706565643A20000A0025750074
:10054000343A2074696D655F746F5F6D61783A202D
:10055000000A00257500333A206D61785F7370657D
:1005600065643A20000A00257500323A20696E74ED
:10057000657276616C286D73293A20000A00257532
:1005800000313A2064656C6179282A31306D732915
:100590003A20000A092D2056616C756573202D0ADA
:1005A000004D3E004D25643E20003F0073657420E1
:1005B00064656661756C740A00433E200077686567
:1005C00072652064656C74613A20637572736F7232
:1005D0003D25642C20776865656C3D25640A53656C
:1005E0006520687474703A2F2F656E2E77696B6979
:1005F00070656469612E6F72672F77696B692F4D23
:100600006F7573655F6B6579730A000A092D204D5C
:100610006F7573656B6579202D0A4553432F713AC9
:1006200009717569740A313A0964656C6179282A1F
:1006300031306D73290A323A09696E7465727661D8
:100640006C286D73290A333A096D61785F737065A0
:1006500065640A343A0974696D655F746F5F6D6132
:10066000780A353A09776865656C5F6D61785F7304
:10067000706565640A363A09776865656C5F746908
:100680006D655F746F5F6D61780A0A703A09707208
:10069000696E742076616C7565730A643A097365D6
:1006A000742064656661756C74730A75703A092B01
:1006B000310A646F776E3A092D310A706775703AA6
:1006C000092B31300A7067646F776E3A092D31302B
:1006D0000A0A7370656564203D2064656C7461204E
:1006E0002A206D61785F7370656564202A20287206
:1006F0006570656174202F2074696D655F746F5F2C
:100700006D6178290A003F004D3E2000433E2000E5
:100710004C25640A0074696D65725F7265616433AB
:100720003228293A202530346C580A006B657962EA
:100730006F6172645F69646C653A2025580A006BCA
:100740006579626F6172645F70726F746F636F6CF2
:100750003A2025580A00686F73745F6B6579626F81
:100760006172645F6C65647328293A2025580A0019
:100770000A092D20537461747573202D0A004743B4
:10078000433A20382E342E30204156522D4C4942C7
:10079000433A20322E302E30204156525F41524390
:1007A000483A20617672350A004F5054494F4E53F3
:1007B0003A204C554641204D4F5553454B45592005
:1007C00045585452414B455920434F4E534F4C4589
:1007D00020434F4D4D414E4420343039360A0042BB
:1007E00055494C443A202028417567203231203247
:1007F000303231290A005649443A2030784645457E
:100800004428416C697347726176654E696C292092
:100810005049443A20307844423946285369646547
:100820006B69636B29205645523A2030783030305E
:10083000310A000A092D2056657273696F6E202DEA
:100840000A000A092D20436F6E736F6C65202D0A14
:100850004553432F713A09717569740A6D3A096DF0
:100860006F7573656B65790A000A092D204D616704
:100870006963202D0A443A094465627567204D6515
:10088000737361676520546F67676C650A583A092E
:100890004D6174726978204465627567204D6F649C
:1008A0006520546F67676C65202D2053686F772033
:1008B0006B65797072657373657320696E206D6105
:1008C0007472697820677269640A4B3A094B6579DA
:1008D000626F61726420446562756720546F676758
:1008E0006C65202D2053686F77206B657970726579
:1008F0007373207265706F72740A4D3A09446562B1
:100900007567204D6F75736520546F67676C650A56
:10091000563A0956657273696F6E0A533A095374F1
:10092000617475730A433A09416374697661746549
:1009300020436F6E736F6C65204D6F64650A46319E
:100940002D4631303A0953776974636820746F20FB
:100950004C6179657220302D392028463130203D98
:10096000204C30290A302D393A095377697463686D
:1009700020746F204C6179657220302D390A4752FE
:100980004156453A0953776974636820746F204C67
:100990006179657220302028616C7465726E6174B3
:1009A00065290A423A094A756D7020746F20426FBA
:1009B0006F746C6F616465720A4553433A094A75F6
:1009C0006D7020746F20426F6F746C6F616465721C
:1009D0002028616C7465726E617465290A453A0954
:1009E0005072696E7420454550524F4D20536574C6
:1009F00074696E67730A4253504143453A09436C28
:100A000065617220454550524F4D0A000A00257518
:100A1000002E6E6B726F3A20000A002575002E734F
:100A20007761705F6261636B736C6173685F626151
:100A3000636B73706163653A20000A002575002EB0
:100A4000737761705F67726176655F6573633A2083
:100A5000000A002575002E6E6F5F6775693A2000E9
:100A60000A002575002E737761705F72616C745F88
:100A7000726775693A20000A002575002E73776148
:100A8000705F6C616C745F6C6775693A20000A0076
:100A90002575002E737761705F7263746C5F726787
:100AA00075693A20000A002575002E737761705F22
:100AB0006C63746C5F6C6775693A20000A00257579
:100AC000002E636170736C6F636B5F746F5F636F35
:100AD0006E74726F6C3A20000A002575002E7377D1
:100AE00061705F636F6E74726F6C5F636170736C63
:100AF0006F636B3A20000A0025303258006B65792D
:100B00006D61705F636F6E6669672E7261773A2000
:100B1000000A002575002E6D6F7573653A20000A76
:100B2000002575002E6B6579626F6172643A200052
:100B30000A002575002E6D61747269783A20000AEA
:100B4000002575002E656E61626C653A20000A0012
:100B5000253032580064656275675F636F6E666941
:100B6000672E7261773A20000A0025750064656679
:100B700061756C745F6C617965723A20003F000AA0
:100B80006D6F7573653A206F66660A000A6D6F7542
:100B900073653A206F6E0A000A6B6579626F617245
:100BA000643A206F66660A000A6B6579626F61724B
:100BB000643A206F6E0A000A6D61747269783A2097
:100BC0006F66660A000A6D61747269783A206F6E0A
:100BD0000A000A64656275673A206F66660A000A51
:100BE00064656275673A206F6E0A000A0A4A756D7D
:100BF00070696E6720746F20626F6F746C6F6164D0
:100C000065722E2E2E2000433E2000436C656172DB
:100C1000696E6720454550524F4D0A006565636F08
:100C20006E6669673A0A00290A002575002F0025BB
:100C300075005D2800256400200025640020002543
:100C4000640020002564007C0025303258006D6F60
:100C50007573656B6579205B62746E7C7820792092
:100C60007620685D287265702F61636C293A205B7D
:100C7000000A002530325820006B6579626F61727E
:100C8000645F7265706F72743A20000A002530321A
:100C900058006B6579626F6172645F7365745F6C35
:100CA00065643A20004F6E6573686F743A20616323
:100CB000746976653A2025640A005B735D004B65B4
:100CC00079626F6172642073746172742E0A005BC2
:100CD000575D005B535D005B525D005B445D005BF4
:100CE000435D00120353006900640065006B0069F6
:100CF0000063006B0000001A0341006C0069007380
:100D000000470072006100760065004E0069006CCB
:100D10000000000403090409025B00030100A0FABB
:100D20000904000001030101000921110100012251
:100D300040000705810308000A09040100010300BF
:100D40000000092111010001227B00070582032018
:100D5000000A090402000203000000092111010039
:100D60000122220007058303200001070503032059
:100D700000011201100100000008EDFE9FDB0100E0
:100D8000010200010631FF0974A101097515002651
:100D9000FF009520750881020976150026FF009551
:100DA0002075089102C005010902A101850209010F
:100DB000A1000509190129081500250195087501EB
:100DC00081020501093009311581257F95027508D9
:100DD000810609381581257F950175088106050C66
:100DE0000A38021581257F950175088106C0C00566
:100DF000010980A101850319012AB700150126B751
:100E000000950175108100C0050C0901A101850440
:100E100019012AA002150126A00295017510810072
:100E2000C005010906A101050719E029E7150025FC
:100E30000195087501810295017508810105071961
:100E40000029FF150026FF0095067508810005089A
:100E50001901290595057501910295017503910107
:100E6000C00011241FBECFEFDAE0DEBFCDBF04B655
:100E700003FE27C080915B0290915C02A0915D020D
:100E8000B0915E028730904BA740B04BD1F41092E6
:100E90005B0210925C0210925D0210925E0214BE20
:100EA00084B7877F84BF0FB6F894A89580916000BF
:100EB000886180936000109260000FBEE0E0F8E36C
:100EC000099511E0A0E0B1E0E8E8FBE502C005907B
:100ED0000D92AC39B107D9F722E0ACE9B1E001C01D
:100EE0001D92AB35B207E1F70E94B6270C94822D14
:100EF0000C940000FF93EF93E0919C01F0919D0111
:100F0000309709F00995EF91FF910895FC018591C3
:100F1000803011F0EFDFFBCF0895FF27E0E230E2F1
:100F200047FF0CC0419597FF09C0EDE260957095B1
:100F300080959095611D711D811D911D27FF02C037
:100F4000219530E350E2AA27660F771F881F991F6B
:100F5000AA1FA41710F0A41B63955A95A9F7AA30ED
:100F600008F0A95FA05DAF93F39561157105810548
:100F7000910541F7ED3211F4EF93F395F21718F460
:100F80003F93F395FBCF8F91B5DFFA95E1F7089585
:100F9000E991F9918591803021F0853219F0AADF2D
:100FA000F9CF089520E0E89455915532C1F35033BC
:100FB00011F4689455915A3348F4505390F3220F2A
:100FC000022E220F220F200D250FF4CF0EF42195B3
:100FD00089919991533619F3533729F1533559F1C2
:100FE000BC0188279927E8945C3621F4899199916E
:100FF00068945591543639F446EF7EF077FF0DC072
:101000008FEF9FEF0AC055374AE039F0583540E17D
:1010100021F0523642E009F00895FF93EF937DDF0F
:10102000EF91FF91B7CFFF93EF93FC018191803057
:10103000B9F360DFFBCFFF93EF9368DFF1CFDF936E
:10104000CF93CDB7DEB72596A3DFCF91DF9108957B
:101050008F559D458831910570F4FC01EC57F24D98
:10106000DB0112969C910C94262D992321F080E8A7
:1010700092E00E94560A81E008959923E1F382E705
:1010800092E0F7CF9923B9F384E692E0F2CF992367
:1010900091F386E592E0EDCF992369F388E492E03D
:1010A000E8CF992341F38AE392E0E3CF992319F340
:1010B0008CE292E0DECF9923F1F28EE192E0D9CF7B
:1010C0009923C9F280E192E0D4CF9923A1F282E082
:1010D00092E0CFCF992379F284EF91E0CACF9923A0
:1010E00051F286EE91E0C5CF992329F288ED91E087
:1010F000C0CF992309F4BFCF85ED91E0BACF9923F2
:1011000009F4B9CF84EC91E0B4CF992309F4B3CFBB
:101110008FE791E0AECF992309F4ADCF80E491E061
:10112000A8CF992309F4A7CF83E391E0A2CF992315
:1011300009F4A1CF8BE291E09CCF992309F49BCFD6
:101140008BE191E096CF992309F495CF82E091E06D
:1011500090CF992309F48FCF81EE90E08ACF992325
:1011600009F489CF83EB90E084CF992309F483CFEE
:101170008CEA90E07ECF81E008950C9428080895D1
:101180000C94BF081F93CF93DF9300D000D00F9231
:10119000CDB7DEB749835A836B833091C80189810B
:1011A0009A8131111DC06623B9F02223A9F00E9453
:1011B0001B22182F682F89819A810E94C72169817B
:1011C0007A81812F0F900F900F900F900F90DF91E9
:1011D000CF911F910C94840A0E94F321182FEFCF16
:1011E0000E941B2269817A81EDCFFC01262F40816C
:1011F00051816281738184810C94C208CF93DF9303
:10120000EC0160E00E94F508BE01DF91CF910C94E3
:10121000C0080E94AA0C0C94CF0C0C94D20C089518
:101220000E94311D0E940F092FEF84E39CE02150A2
:1012300080409040E1F700C000000C9473250F93AC
:101240001F93CF93DF938C0161E00E94F508EC01BE
:10125000B8010E94BD088823C1F1B801CE010E94E7
:10126000AA16882391F1B801CE010E94FC168823AA
:1012700061F1B801CE010E941F18882331F1F801F5
:101280008281882361F0CF3DFCE5DF07B1F170F486
:10129000C115ECE5DE07B9F0C130DC45E1F0C8016D
:1012A000DF91CF911F910F910C94BB08CC358DE548
:1012B000D80749F1CD35DC0719F1CB35DD4579F794
:1012C0000E94DE22ECCF0E94100980E0DF91CF91D6
:1012D0001F910F91089590912F02892F8E7F90FF7B
:1012E000816080932F0280FF05C08CE293E00E9412
:1012F0008607EBCF8AE193E0FACF0E944C24E5CF3A
:101300000E94D522CCCF0E94E122C9CFDF92EF927A
:10131000FF920F931F93CF93DF93E82FF0E0E35CEE
:10132000FC4FD490282F26952695269530E0F9017C
:10133000E352FC4F0491877010E0082E02C015950F
:1013400007950A94E2F701701127F901E353FC4F66
:10135000E490F12C082E02C0F594E7940A94E2F789
:1013600091E0E922FF24F901E354FC4FC491D0E05D
:1013700002C0D595C7958A95E2F7C170DD270115A2
:10138000110519F081EE0E94171AE114F10419F009
:1013900086EE0E94171A8D2D0E94B01AEF2819F0C0
:1013A00086EE0E946A1A012B19F081EE0E946A1AD9
:1013B000CD2B51F08CE2DF91CF911F910F91FF90D7
:1013C000EF90DF900C94B01ADF91CF911F910F91A5
:1013D000FF90EF90DF900895EF92FF920F931F938D
:1013E000CF93DF938C01F62E8AE0E82EF8018491EA
:1013F000882309F454C0813009F04DC0E8012196DA
:10140000FE018491813091F42196FE0184910E9425
:10141000B01A8E010F5F1F4F8F2D815038F3EFE907
:10142000FFE03197F1F700C00000F7CF823039F4C8
:10143000E8012296FE0184910E94171AEACF8330B8
:1014400039F4E8012296FE0184910E946A1AE1CFE4
:101450008430F9F6E8012296FE01249190E080E0C4
:10146000FE0131962053330B2A30310548F00197A5
:1014700080F2EFE9FFE03197F1F700C00000F7CF0D
:10148000E89EA001E99E500D1124C901840F951F0B
:101490002491EF01E5CF0E948609E801BACFDF91E0
:1014A000CF911F910F91FF90EF90089560E00C9401
:1014B000EC09829590E09C01220F331F220F331F0D
:1014C0002C7C95958795959587958373282B30E08F
:1014D000C901880F991F8A7A359527952575822B22
:1014E000089508950C94710A81E008950C94740A8B
:1014F000CF93C82F0E94720A8C2FCF910C94760A3A
:1015000090E080E008950895972F70E027E0929F83
:10151000600D711D1124FB0193E2899FE00DF11D07
:101520001124EE0FFF1FE257FD4F8591949108950E
:10153000FC01EE0FFF1FE351FC4F8591949108953C
:10154000CF93DF930E94840A0E94B50BEC018115B2
:1015500020E5920708F042C0811530E4930708F0B7
:10156000BDC0883E910528F5803E910508F09DC0DC
:10157000883A910588F4853A910508F08FC081304A
:10158000910509F492C0009709F48FC0049708F000
:101590008CC0D0E0C0E089C08F3B910508F489C0C1
:1015A000805C9109C03CD105A0F30E94980AEC012F
:1015B0007CC08115904250F4C11581E0D80708F035
:1015C00074C0CD3ED10528F3D0656FC0C11590E33E
:1015D000D90708F079C0CE019F70E7CF811525E5C6
:1015E000920758F5811534E5930708F0A6C08115D8
:1015F00042E5940750F4C11581E5D80708F471C09D
:10160000DC2FCC27C16FD06A50C0982F9695969545
:101610009E0123703327C115D34508F07FC0C1E078
:10162000D0E002C0CC0FDD1F2A95E2F720E2929FA6
:10163000C0011124C82BD92B6FC0C11589E5D8076B
:10164000A8F4C11598E5D90708F07CC0C11526E5B6
:10165000D20708F09ECF8C2F0E944C0CC82FD0E0F0
:10166000DC2FCC27CC27DF71D0621FC0C1153AE533
:10167000D30708F46CC0CE0190568115904208F053
:1016800088CF8D2F8F710E944C0C90E0982F882767
:1016900088279F719C012C2BE901E6CFC55AD0E029
:1016A000CD5BDE4FC881D0E0D064CE01DF91CF9119
:1016B0000895C85AD0E0CC0FDD1FCB5EDE4F0990F5
:1016C000D881C02DD464F1CFCE019927D3FF03C0B8
:1016D000EC01D86CEACFEC01D06CE7CFDF70D06AB8
:1016E000E4CFCE01E4E096958795EA95E1F7837023
:1016F0002C2F26952695237090E2299F9001112486
:10170000382B8C2F8370C1E0D0E002C0CC0FDD1FDE
:101710008A95E2F7C22BD32BDC68C7CFC1E0D0E0BB
:1017200002C0CC0FDD1F2A95E2F730E2939FC00183
:101730001124C82BD92BDA68B8CFD82FCC27C46F87
:10174000D06AB3CFDC2FCC27C06FD06AAECF8C2F3E
:101750008F700E944C0C34E0D695C7953A95E1F70E
:10176000CF709C2FEC01D069A0CF82389105B1F1E8
:10177000B0F48133910509F475C048F489329105BC
:1017800009F469C08A32910509F473C0089585335C
:10179000910509F459C08933910501F10895833EFB
:1017A0009105A9F138F4803E9105F9F0823E91054A
:1017B00049F10895863E9105A9F1873E9105C9F149
:1017C000843E910519F520913F0221FF1FC08091B1
:1017D0003E0284FD14C087EE90E0089520913E0201
:1017E0002370A1F080EE90E0089520913E0220FD4C
:1017F00047C030913F0230FF09C024FF44C090E051
:1018000080E004C020913E0222FDF7CF0895209190
:101810003E0222FD3BC030913F0230FDE3CF24FF6A
:10182000F5CFEDCF20913E0223FFF0CF24FDE7CF8F
:10183000D2CF20913E0223FD2CC030913F0231FFD8
:10184000EECF84EE90E0089520913E0225FFDECF9A
:1018500089E290E0089520913E0225FFD7CF85E3ED
:1018600090E0089520913E0226FFD0CF8AE290E0DA
:10187000089520913E0226FFC9CF81E390E00895AC
:1018800089E390E0089583EE90E0089582EE90E081
:10189000089586EE90E0089590913E0292FF06C072
:1018A000282F28712830F9F4877F846093FF06C0C1
:1018B000282F28712831F1F4877E846120913F021E
:1018C00020FF06C0382F38713830D9F4877F816007
:1018D00021FF06C0282F28712831D1F4877E81612D
:1018E00094FD877E0895282F24712430F9F68B7F8C
:1018F0008860DCCF282F2471243101F78B7E88612A
:10190000DDCF382F3171313019F78E7F8860E0CF0D
:10191000282F2171213121F78E7E8861E1CF0C942F
:10192000A1230E94790D2FEF86E791E0215080409E
:101930009040E1F700C000000E94790D80E00E9415
:10194000D40C80FF04C00E948F0C0C947325089562
:101950000C94910C0E94A723811102C00E944C2478
:101960000E94B22380932F020E94BA2390933F02D9
:1019700080933E020E94A80C0E94B623682F70E05C
:1019800090E080E00E94C92060911A0270911B02D1
:1019900080911C0290911D020C94032108950C94D7
:1019A000CE0C08950C94D10CE82FF0E0EB5BFD4FCA
:1019B00080810895CF92DF92EF92FF920F931F9351
:1019C000CF93DF938CEF93E00E94860785E4E82EA7
:1019D00082E0F82ED0E0C0E097EFC92E93E0D92E38
:1019E0000FEE13E0DF93CF93DF92CF920E941F0898
:1019F00084EF93E00E948607F70181917F010E94A6
:101A0000590A1F928F931F930F930E941F088DEE08
:101A100093E00E94860721968DB79EB708960FB671
:101A2000F8949EBF0FBE8DBFC530D105D9F6DF91AA
:101A3000CF911F910F91FF90EF90DF90CF9008957D
:101A400080EA8A95F1F7089500C008950C94200D5E
:101A5000F894E82FE295EF70F0E031A1282F2F7075
:101A600081E090E001C0880F2A95EAF7982F9095C1
:101A7000932391A392A1892B82A3789408950F9325
:101A80001F93CF93DF9380E90E94280D86E60E9482
:101A9000280D82E30E94280D86E30E94280D85E32D
:101AA0000E94280DC6E4D1E00DE411E089910E9466
:101AB000280D0C171D07D1F7109240021092450215
:101AC0001092410210924602109242021092470276
:101AD000109243021092480210924402109249025E
:101AE00085E00E94F00DDF91CF911F910F910C9432
:101AF0000909CF92DF92EF92FF920F931F93CF933A
:101B0000DF93CDE4D1E000E412E0D12CEE24E394A5
:101B1000F12C8991F894E82FE295EF70F0E021A183
:101B20008F70A70102C0440F551F8A95E2F7CA01C2
:101B3000922F982B91A392A18095892382A37894C8
:101B40000E94240DE6E4F1E030E020E0C12C419158
:101B5000A42FA295AF70B0E090968C9190E04F705A
:101B600002C0959587954A95E2F780FD35C08E2D88
:101B7000022E01C0880F0A94EAF7C82A2F5F3F4F50
:101B80002730310521F7FE01319780810E94280D11
:101B90000E94260DF8018081C81601F1C08281E003
:101BA000D82A0F5F1F4FF1E0C235DF0709F0B1CF30
:101BB0002D2D45E065E472E080E492E00E94F10D95
:101BC0000E940D098D2DDF91CF911F910F91FF90F4
:101BD000EF90DF90CF90089580E0CFCF80E0E0CF0E
:101BE0000895FF920F931F93CF93DF93F82E092F41
:101BF000162FD72FC42F222349F081E08093A00114
:101C00000E94282590939F0180939E018091A001BE
:101C10008823A1F080919E0190919F010E94402510
:101C2000069760F0EF2DF02FA12FBD2FCE0FDF2FE5
:101C3000D11DEC17FD0741F41092A001DF91CF9167
:101C40001F910F91FF90089581918D93F2CF8BE0BA
:101C500096E00E9486071F9281E08F931F9285E095
:101C60008F938DEB95E09F938F930E941F080F90A9
:101C70000F900F900F900F900F900895833009F4FC
:101C800045C028F4813061F0823049F108958530F3
:101C900009F46AC008F451C0863009F47CC0089584
:101CA00080910701482F460F5527551F4F3F51057B
:101CB00094F4680F60930701809107011F928F933E
:101CC00086EF94E09F938F930E941F080F900F90D0
:101CD0000F900F9008958FEF80930701EDCF8091C3
:101CE0000601482F460F5527551F4F3F510554F405
:101CF000680F60930601809106011F928F9384EE16
:101D000094E0E0CF8FEF80930601F5CF809105013D
:101D1000482F460F5527551F4F3F510554F4680F64
:101D200060930501809105011F928F9381ED94E0EE
:101D3000C9CF8FEF80930501F5CF80910401482F23
:101D4000460F5527551F4F3F510554F4680F6093B8
:101D50000401809104011F928F938CEB94E0B2CF29
:101D60008FEF80930401F5CF80910101482F460F3A
:101D70005527551F4F3F510554F4680F60930101DB
:101D8000809101011F928F9383EA94E09BCF8FEFA4
:101D900080930101F5CF80910001482F460F552710
:101DA000551F4F3F510554F4680F60930001809117
:101DB00000011F928F9388E894E084CF8FEF809387
:101DC0000001F5CF8330C9F128F4813061F0823011
:101DD00019F10895853009F452C008F43FC08630E7
:101DE00009F45EC0089580910701681790F4861B7E
:101DF00080930701809107011F928F9389E794E0F8
:101E00009F938F930E941F080F900F900F900F9039
:101E1000089510920701EECF80910601681750F4E3
:101E2000861B80930601809106011F928F9387E69F
:101E300094E0E6CF10920601F6CF80910501681775
:101E400050F4861B80930501809105011F928F93AA
:101E500084E594E0D5CF10920501F6CF809104017E
:101E6000681750F4861B80930401809104011F922F
:101E70008F938FE394E0C4CF10920401F6CF80914A
:101E80000101681750F4861B8093010180910101C4
:101E90001F928F9386E294E0B3CF10920101F6CFA8
:101EA00080910001681750F4861B80930001809197
:101EB00000011F928F938BE094E0A2CF109200015B
:101EC000F6CFCF93C82F1F928F9380E197E09F9317
:101ED0008F930E941F0861E070E080E090E004C0F2
:101EE000660F771F881F991FCA95D2F70E94C920D5
:101EF0000F900F900F900F90CF910C94311DCF93B6
:101F0000DF938B3109F4FAC108F09CC18B3009F4DE
:101F1000B8C108F06AC1863009F4C6C148F48530FA
:101F200009F49EC18DE79BE00E94860780E0CCC14A
:101F3000873009F4CCC18830A9F78CE19CE00E947D
:101F400086078DE69BE00E9486070E94B6231F92BB
:101F50008F938AE69BE09F938F930E941F0888E6E9
:101F60009BE00E9486070E94B223C82F85E59BE074
:101F70000E9486071F92CF9380E59BE09F938F93EB
:101F80000E941F088EE49BE00E94860784E49BE089
:101F90000E9486078C2F81701F928F9381E49BE0B3
:101FA0009F938F930E941F088FE39BE00E948607F8
:101FB00085E39BE00E948607C1FB882780F91F927A
:101FC0008F9382E39BE09F938F930E941F0880E38F
:101FD0009BE00E94860784E29BE00E948607C2FB8A
:101FE000882780F91F928F9381E29BE09F938F93C4
:101FF0000E941F088FE19BE00E94860786E19BE01C
:102000000E948607C3FBCC27C0F91F92CF9383E1C0
:102010009BE09F938F930E941F0881E19BE00E94A9
:1020200086070E94BA23EC018DEF9AE00E94860792
:10203000DF93CF9388EF9AE09F938F930E941F08BE
:1020400086EF9AE00E9486078DED9AE00E9486074F
:102050008C2F81701F928F938AED9AE09F938F93BC
:102060000E941F088DB79EB780960FB6F8949EBF4A
:102070000FBE8DBF88ED9AE00E94860781EC9AE042
:102080000E948607C1FB882780F91F928F938EEBF1
:102090009AE09F938F930E941F088CEB9AE00E9416
:1020A00086078AEA9AE00E9486078D2F81701F9228
:1020B0008F9387EA9AE09F938F930E941F0885EA87
:1020C0009AE00E94860783E99AE00E948607D695E7
:1020D000D1701F92DF9380E99AE09F938F930E94C3
:1020E0001F088EE89AE00E9486078CE79AE00E941B
:1020F0008607C2FB882780F91F928F9389E79AE0B1
:102100009F938F930E941F0887E79AE00E9486079B
:1021100085E69AE00E948607C3FB882780F91F9214
:102120008F9382E69AE09F938F930E941F0880E628
:102130009AE00E94860786E59AE00E948607C4FB23
:10214000882780F91F928F9383E59AE09F938F935E
:102150000E941F0881E59AE00E9486078FE39AE0BB
:102160000E948607C5FB882780F91F928F938CE316
:102170009AE09F938F930E941F088AE39AE00E943F
:1021800086078EE19AE00E948607C6FB882780F9C1
:102190001F928F938BE19AE09F938F930E941F0869
:1021A0008DB79EB780960FB6F8949EBF0FBE8DBFB9
:1021B00089E19AE00E94860781E19AE00E94860701
:1021C000C7FBCC27C0F91F92CF938EE09AE09F9374
:1021D0008F930E941F088CE09AE00E9486070F9060
:1021E0000F900F900F9081E06FC0803109F49EC076
:1021F00080F48E3009F096CE90912F02892F8B7F3C
:1022000092FF846080932F0282FF8DC088EA9BE05A
:1022100081C0863109F49AC0893109F083CE83E305
:1022200098E00E94860786EF97E00E9486078FED70
:1022300097E00E94860789EA97E00E9486078EE76A
:1022400097E021C08A3249F190F4873211F128F4E5
:102250008E3108F467CE8D511DC0893209F062CEEF
:102260008BEE9BE00E9486070E941009BCCF83344E
:1022700068F48A3308F0A1C0853359F0883309F037
:1022800051CE89E698E00E948607ADCF833409F0ED
:1022900049CE80E00E94610FA6CF8BE09CE00E94B7
:1022A00086070E944C249FCF80912F02807F8093CD
:1022B0002F0282E498E00E94860787E09CE00E945B
:1022C000860781E08093A201DF91CF9108959091DC
:1022D0002F02892F8E7F90FF816080932F0280FFD5
:1022E00003C08FED9BE0CFCF82ED9BE00E9486077D
:1022F00080912F02817F80932F0275CF90912F02C2
:10230000892F8D7F91FF826080932F0281FF08C00B
:1023100085EC9BE00E94860780912F028160EBCFC5
:1023200087EB9BE0B0CF88E99BE0ADCF90912F0287
:10233000892F877F93FF886080932F0283FF03C0DC
:102340008CE89BE0E7CF8FE79BE09DCF80E797E0AD
:102350000E9486070E944E181F928F9386E597E091
:102360009F938F930E941F08809114011F928F9357
:102370008FE397E09F938F930E941F0880913D0207
:102380001F928F938CE297E09F938F930E941F0878
:102390000E9434259F938F937F936F9385E197E0FD
:1023A0009F938F930E941F088DB79EB742960FB6DA
:1023B000F8949EBF0FBE8DBF16CF89536BCF80E0C0
:1023C00008950C94DF118E518A3030F4E82FF0E03C
:1023D000EE5AFE4F8081089580E00895CF93C82F74
:1023E0008091A2018130C1F0882339F0823009F454
:1023F00047C01092A20180E00DC00E94E422823208
:10240000D1F78C2F0E94DF1181111BC08C2F0E94ED
:102410007F0F8170CF9108950E94E422823289F368
:102420008C2F0E94E11181111BC0C431D9F060F4DE
:10243000CB3071F0C031D1F086E097E00E94860782
:1024400013C081E090E0E5CFC93261F0C833A1F755
:1024500082E498E00E9486078CE097E00E9486075D
:1024600081E0D7CF1092A20180E0D3CF0E94270E47
:1024700088E097E00E94860782E08093A201F0CF77
:10248000C432C8F4CE3108F0BEC0CB30E1F040F425
:10249000C73009F4CCC08AEA95E00E94860726C0BE
:1024A000C331C1F1C431B9F78091A101882351F141
:1024B0001092A1010AC0CB3409F4B7C0C8F4C932E4
:1024C00099F3C83341F70E94270E8091A101882318
:1024D00009F4C4C01F928F9384EA95E09F938F9371
:1024E0000E941F080F900F900F900F9081E092CFE5
:1024F000C13509F494C0C23509F48BC0CE3459F605
:102500006AE08EC089EB95E00E94860781E08093A7
:10251000A20180CF83E995E00E94860781E895E0DB
:102520000E948607809107011F928F938EE795E0A6
:102530009F938F930E941F088CE795E00E94860767
:102540008AE695E00E948607809106011F928F938C
:1025500087E695E09F938F930E941F0885E695E09C
:102560000E94860786E595E00E9486078091050116
:102570001F928F9383E595E09F938F930E941F088E
:1025800081E595E00E94860780E495E00E94860739
:10259000809104011F928F938DE395E09F938F9319
:1025A0000E941F088BE395E00E94860786E295E073
:1025B0000E948607809101011F928F9383E295E02C
:1025C0009F938F930E941F0881E295E00E948607E7
:1025D0008AE095E00E948607809100011F928F9308
:1025E00087E095E09F938F930E941F0885E095E018
:1025F0000E9486078DB79EB748960FB6F8949EBF87
:102600000FBE8DBF62CF8C2F0E94E3118093A1017A
:102610005CCF61E08091A1010E943E0E56CF61E047
:102620008091A1010E94E20E50CF6AE0F3CF8EE1CB
:102630008093070182E3809306018AE0809305017D
:1026400084E18093040188E08093010188E2809313
:1026500000018CEA95E00E94860737CF81EA95E079
:102660001CCF8091A90180FF12C06091050185E017
:10267000689FB001112475956795759567956038C9
:102680007105A8F561157105A1F1862F089581FFE7
:1026900009C06091050185E0689FB001112475951E
:1026A0006795EDCF6091050182FD0AC08091A80178
:1026B0008823D1F09091040160910501891728F0D9
:1026C00085E0689FB0011124DACF869FB001112404
:1026D00085E0869F9001879F300D1124692F70E05F
:1026E000C9010E94122DCBCF65E070E0CECF8FE7FD
:1026F000089581E008958091A90180FF0CC0609148
:10270000010170E07595679575956795611571057F
:1027100049F1862F089581FF06C06091010170E0A4
:1027200075956795F3CF6091010182FD0BC0909183
:10273000A7019923A1F060910001809101019617F2
:1027400038F0682F70E06038710500F38FE7089566
:10275000899FC001112470E00E94122DF4CF61E026
:1027600070E0D7CF81E008958D3E31F40E9431139F
:1027700081958093AD0108958E3E19F40E94311326
:10278000F8CF8F3E31F40E94311381958093AC01D4
:102790000895803F19F40E943113F8CF893F29F43E
:1027A0000E947B138093AE0108958A3F21F40E941A
:1027B0007B138195F7CF8B3F31F40E947B1381957A
:1027C0008093AF0108958C3F19F40E947B13F8CFDA
:1027D0009FE0980F983070F4815F990B21E030E012
:1027E00001C0220F8A95EAF78091AB01822B80937A
:1027F000AB0108958D3F31F48091A90181608093F0
:10280000A90108958E3F21F48091A9018260F7CF3C
:102810008F3FB9F78091A9018460F1CF4091AC015D
:102820008D3E59F48091AD0187FF0DC01092AD012E
:1028300041110BC01092A80108C08E3E81F4809116
:10284000AD0118169CF3442381F08091AE01909164
:10285000AF01892B09F05AC01092A70108958F3E4D
:1028600049F447FFF0CF1092AC018091AD01811186
:10287000ECCFE0CF803F19F41416ACF3E4CF909185
:10288000AE01893F29F41916F4F61092AE01DBCFA0
:102890008A3F19F497FFD7CFF8CF9091AF018B3FC4
:1028A00029F497FFD0CF1092AF01CDCF8C3F19F410
:1028B0001916CCF3C8CF9FE0980F983090F4815F41
:1028C000990B21E030E0B90102C0660F771F8A95AD
:1028D000E2F7CB0180959091AB0189238093AB0106
:1028E000B2CF8D3F31F48091A9018E7F8093A901F1
:1028F000AACF8E3F21F48091A9018D7FF7CF8F3F22
:1029000009F0A1CF8091A9018B7FF0CF089580912C
:102910002F0283FF7EC08EE49CE00E948607809198
:10292000AB011F928F9389E49CE09F938F930E9449
:102930001F0887E49CE00E9486078091AC01282F45
:10294000082E000C330B3F938F9384E49CE09F93FD
:102950008F930E941F0882E49CE00E94860780916A
:10296000AD01282F082E000C330B3F938F938FE37C
:102970009CE09F938F930E941F088DE39CE00E9430
:1029800086078091AE01282F082E000C330B3F9351
:102990008F938AE39CE09F938F930E941F0888E3A4
:1029A0009CE00E9486078091AF01282F082E000C22
:1029B000330B3F938F9385E39CE09F938F930E940B
:1029C0001F0882E39CE00E9486078091A8011F9265
:1029D0008F938FE29CE09F938F930E941F088DE25C
:1029E0009CE00E9486078091A9011F928F938AE242
:1029F0009CE09F938F930E941F0887E29CE00E94B7
:102A000086078DB79EB74C960FB6F8949EBF0FBE43
:102A10008DBF0E9428259C019091AC018091AD0151
:102A2000982B21F03093A6012093A5019091AE013F
:102A30008091AF01982B21F03093A4012093A30142
:102A40008AEA91E00C94A618EF92FF920F931F93DD
:102A5000CF93DF9300D000D000D0CDB7DEB786E0B3
:102A6000EAEAF1E0DE01119601900D928A95E1F714
:102A7000E090AC01F090AD010091AE011091AF017A
:102A80001092AC011092AD011092AE011092AF0104
:102A90008E2D8F2991F08091A5019091A6010E9421
:102AA0004025AC019091A801992309F43FC0809181
:102AB00006018417150608F447C0802F812B91F07A
:102AC0008091A3019091A4010E944025AC019091B6
:102AD000A701992309F477C0809102018417150694
:102AE00008F47FC08091AC019091AD01892B909149
:102AF000AE01892B9091AF01892B11F00E948714B0
:102B000086E0FE013196AAEAB1E001900D928A9525
:102B1000E1F726960FB6F894DEBF0FBECDBFDF916A
:102B2000CF911F910F91FF90EF9008952091070191
:102B30008AE0289F900111242417350708F0BDCFA3
:102B40009F5F9093A80102C09F3FD1F7EE2059F0FC
:102B50000E9431139FEF1E140CF491E0899F802D89
:102B600011248093AC01FF2059F00E9431139FEF94
:102B70001F140CF491E0899F802D11248093AD01E6
:102B80003091AC01332309F498CF2091AD01222379
:102B900009F493CF45EB3403C0011124992359F074
:102BA0009093AC0145EB240390011124332339F0B9
:102BB0003093AD0182CF81E08093AC01F3CF81E00F
:102BC0008093AD017ACF209103018AE0289F900184
:102BD00011242417350708F085CF9F5F9093A70134
:102BE00002C09F3FD1F7002359F00E947B139FEF53
:102BF00010160CF491E0899F802D11248093AE0172
:102C0000112359F00E947B139FEF11160CF491E0F1
:102C1000899F802D11248093AF013091AE01332321
:102C200009F460CF2091AF01222309F45BCF45EB7B
:102C30003403C0011124992359F09093AE0145EB60
:102C4000240390011124332339F03093AF014ACF8C
:102C500081E08093AE01F3CF81E08093AF0142CF5A
:102C600086E0EAEAF1E0DF011D928A95E9F7109229
:102C7000A8011092A7011092A90108950F931F9324
:102C8000CF93DF93C42FD22FFC0182818823C9F018
:102C90004093B2010E9428259093B1018093B00126
:102CA00080E28C0F883008F050C0C77081E001C00E
:102CB000880FCA95EAF7DF91CF911F910F910C947D
:102CC000B81A1091B201141335C08091B0019091DF
:102CD000B1010E944025883C910560F5C0E2CD0F0E
:102CE0001D17B9F080E2810F883040F4177081E041
:102CF00001C0880F1A95EAF70E94BF1AC83048F43D
:102D000081E09D2F977001C0880F9A95EAF70E9485
:102D1000B81A802F0E94B01AC830B8F4D77081E07A
:102D200001C0880FDA95EAF7DF91CF911F910F91DB
:102D30000C94BF1A80E28C0F883038F4C77081E0A1
:102D400001C0880FCA95EAF7EFCFDF91CF911F91AD
:102D50000F9108950F939C01CB01243F4CE534075C
:102D600059F1A8F4293DFCE53F0701F12A3D4CE566
:102D70003407D1F1283D3C4591F406E221EE41EEC5
:102D800068ED7CE50E943E1680E00F910895263F95
:102D9000FCE53F07E9F0B0F0273F3C45F9F0FC01C6
:102DA0008281882339F11092B201EFCF07E225EE3C
:102DB00045EE69ED7CE5E6CF06E221EE40EE64EFFC
:102DC0007CE5E0CF07E225EE44EE65EF7CE5DACF67
:102DD00006E221EE42EE66EF7CE5D4CF07E225EE77
:102DE00046EE67EF7CE5CECF08E221E045EE6AEDE6
:102DF0007CE5C8CF81E0C9CFCF93DF93EC01FB0125
:102E00008281882309F419C1C230FCE5DF07C0F1D3
:102E1000C6319CE5D90730F09E012B5F3C45293037
:102E2000310570F50E94BA2390933F0280933E02D1
:102E3000C031ECE5DE0709F4CFC008F05BC0C83054
:102E40008CE5D80709F4B6C088F5C430ECE5DE0798
:102E500009F4A8C0C0F4C2308CE5D80709F49CC0BE
:102E600080913E028260C330DC4509F498C08091B5
:102E70003E0290913F020E94C8230E94311D80E0D3
:102E8000DF91CF91089580913E028061C630ECE5DC
:102E9000DE0709F484C080913E028860C730DC45BB
:102EA00008F47DC080913E02806279C0CC308CE510
:102EB000D80709F489C070F480913E028C60CA3052
:102EC000ECE5DE0709F46BC008F478C080913E029F
:102ED0008E7F65C0CE308CE5D80709F479C080912B
:102EE0003E028B7FCF30DC4508F459C080913E0212
:102EF0008F7E55C0CC3FECE5DE0709F457C030F5B6
:102F0000C3318CE5D80709F46FC078F4C131ECE522
:102F1000DE0709F465C0C231DC4509F0A8CF0E9484
:102F2000311D80913E028F773AC0C5318CE5D807BC
:102F300009F462C008F476C080913F028160CB3F03
:102F4000DC4509F094CF80933F0291CFC115FDE598
:102F5000DF0709F44DC088F480913F028D7FCE3F9A
:102F60009CE5D90781F380913F028E7FCF3FDC45FE
:102F700050F380913F028360E6CFC230FDE5DF076A
:102F800009F459C008F444C080E0C330DD4509F0BD
:102F90006ECF0E944E246BCF80913E028160809361
:102FA0003E0265CF80913E028460F9CF80913F025E
:102FB0008260C9CF80913E028064F1CF0E94311DB2
:102FC00080913E028068EBCF80913E028D7FE7CFFB
:102FD00080913E02877FE3CF80913E028F7DDFCFDD
:102FE00080913E028F7BDBCF80913E02837FD7CFE3
:102FF00080913F028C7FA7CF80913E0282FB992770
:1030000090F921E0922790FB82F990FB83F9C7CFDA
:1030100080913F02982F909591708E7F892B90FB25
:1030200081F991CF0E94311D90913E02892F97FB2B
:1030300087F98058B4CF81E0ACCF81E021CFCF9326
:10304000DF93EB0186319C4511F50E94E4229A81C1
:10305000992399F08A7A91E009F490E09093B30172
:10306000811109C089E20E948B220E94342380E0F2
:10307000DF91CF91089585E3F6CF8091B30181115F
:1030800004C089E20E949222F0CF85E3FBCF81E069
:10309000EFCF9093B9018093B8010895E091B80102
:1030A000F091B901309721F00190F081E02D099461
:1030B00080E00895EF92FF920F931F93CF93DF93D9
:1030C0008C01E091B801F091B9013097C1F1028013
:1030D000F381E02D099580912F0282FF30C080FF9F
:1030E00004C089E79CE00E948607D0E0C0E083E747
:1030F000E82E8CE0F82E80912F0280FF0EC0F801A0
:10310000EC0FFD1F80811F928F93FF92EF920E9420
:103110001F080F900F900F900F902196C830D10587
:1031200051F780912F0280FF0AC081E79CE0DF9178
:10313000CF911F910F91FF90EF900C948607DF9134
:10314000CF911F910F91FF90EF900895E091B801FA
:10315000F091B901309739F022E0DC012C93048022
:10316000F581E02D099408952091B6013091B701C1
:103170002817390771F09093B7018093B601E09159
:10318000B801F091B901309721F00680F781E02D68
:10319000099408952091B4013091B5012817390799
:1031A00071F09093B5018093B401E091B801F09172
:1031B000B901309721F00084F185E02D099408953C
:1031C0000E9434256093C4017093C5018093C601A9
:1031D0009093C7016093C0017093C1018093C201B5
:1031E0009093C301089585B7806885BF85B78068CF
:1031F00085BF0895089508950C94FA1808950C94C5
:10320000FE180E94F31884E597E20E9497250E9419
:10321000FB180C94FC1881E008950C940B19089588
:1032200008950E940F190C9410190E941F250E94E6
:103230003F0D0C94FF18CF93C82F80912F0282FF6F
:103240001EC080FF1CC082E99CE00E94860780911E
:103250002F0280FF14C01F92CF938DE89CE09F93B4
:103260008F930E941F0880912F020F900F900F9054
:103270000F9080FF04C08BE89CE00E9486078C2F93
:10328000CF910C94780AAF92BF92CF92DF92EF92D7
:10329000FF920F931F93CF93DF93CDB7DEB72A979B
:1032A0000FB6F894DEBF0FBECDBF0E94790D81111D
:1032B0000E94E0188BEBA82E81E0B82E10E000E011
:1032C000C02E802F0E94D40CE82EF501F1905F01F2
:1032D000F81609F44DC080912F0281FD0E94DA0C8E
:1032E0008F2D8E25D12CFF24F394982F9F21D9F177
:1032F0000E940D19882399F0DE82CF82EF2081E0B1
:1033000009F480E088870E9428258160782F9A87B9
:1033100089874E815F8168858A850E94E019F8015E
:10332000E554FE4F8081F826F0820E9424150E9409
:103330004E189091BA01891791F10E944E1880930E
:10334000BA012A960FB6F894DEBF0FBECDBFDF914B
:10335000CF911F910F91FF90EF90DF90CF90BF9092
:10336000AF900C941B19D394FF0CF7E0DF12BDCF84
:103370000F5F1F4F0530110509F0A2CF8FEF898332
:103380008A831B820E9428258160782F9D838C83ED
:1033900049815A816B818D810E94E019C6CF2A969E
:1033A0000FB6F894DEBF0FBECDBFDF91CF911F9156
:1033B0000F91FF90EF90DF90CF90BF90AF90089566
:1033C000DF92EF92FF920F931F93CF93DF93CDB7CE
:1033D000DEB72B970FB6F894DEBF0FBECDBF7A874E
:1033E0008B87F42E052F162FE72ED82E61110E9401
:1033F00004231E821D827E2DEC82DD824F2D502FF4
:10340000612F8D2D9E812B960FB6F894DEBF0FBED7
:10341000CDBFDF91CF911F910F91FF90EF90DF9083
:103420000C94A71FFC01808191810C945D22CF93A5
:10343000C82F882309F44CC08CEF8C0F813AC8F454
:103440008C2F0E94EE11811143C06C2F80910801D6
:10345000909109010E946524882329F08C2F0E94F5
:1034600092220E9434238C2F0E948B22CF910C94A5
:10347000342380E28C0F883048F4C77081E001C0AB
:10348000880FCA95EAF70E94E722F0CFEBE5EC0F30
:10349000E33040F4F0E0E657FE4F808190E0CF91BA
:1034A0000C94B418E8E5EC0FE73150F4F0E0EE0FBF
:1034B000FF1FE45AFE4F80819181CF910C94CA186E
:1034C000CD3E30F08C2F0E94B413CF910C94871412
:1034D000CF910895882361F19CEF980F913A20F4E1
:1034E0000E9492220C94342390E2980F983050F46A
:1034F000877091E001C0990F8A95EAF7892F0E94A1
:10350000ED22F0CF9BE5980F933020F490E080E01F
:103510000C94B41898E5980F973120F490E080E06F
:103520000C94CA188D3E20F00E940E140C9487143F
:1035300008951F93CF93DF93182FEB010E94171A62
:10354000209731F4812FDF91CF911F910C946A1A4B
:103550008FE99FE00197F1F700C000002197F0CFBD
:1035600070E060E0893311F460E570E00C94991A22
:10357000882321F00E94E7220C94342308958823A5
:1035800021F00E94ED220C9434230895BF92CF9233
:10359000DF92EF92FF920F931F93CF93DF936C0113
:1035A000D62FC72FFC011281058102950F700E9452
:1035B000A922E82E8823A1F0E12E112389F08C2F77
:1035C000807F803429F080E28D0FE12C883040F03C
:1035D00082E00E9485230E94A92291E0E82EE9263C
:1035E000BC2EB2949FE0B922EB2DF0E0E456F24DF0
:1035F0000C94262D0C2F0F70C07F11F00295007FC8
:103600001123A9F0002359F080E28D0F883010F0CB
:10361000D11109C0802F0E94E7220E9434238D2FF0
:103620000E94171A14C0802F0E94F722F6CF8D2F08
:103630000E946A1A002359F080E28D0F883010F042
:10364000D1112CC0802F0E94ED220E9434232B2DFB
:103650002850330B2430310520F40E944E180E946C
:10366000780AEE2009F49EC10E94A52280FD9AC12D
:10367000F60112820E949F220E942B21C6010E9405
:10368000F31C0E949F22DF91CF911F910F91FF9019
:10369000EF90DF90CF90BF900C944C21802F0E9430
:1036A000FD22D3CFFC2FFF70FF2EC07FC03219F058
:1036B000F29480EFF822DD2369F0D13049F1112333
:1036C00091F1002351F1F601858180FFA8CF8F7021
:1036D000858323C0112381F0011106C00E941723A6
:1036E0008F290E94B81AB3CF0130C1F70E94172367
:1036F0008F290E941D23ABCF011106C00E942A23EF
:103700008F2D0E94BF1AA3CF013009F4A0CFF6CFAE
:10371000112329F0063008F09ACF8F2DE2CF053023
:1037200008F095CFEDCF002359F3D93349F4FFEFDB
:1037300027EE33E0F15020403040E1F700C00000B8
:103740008D2F0E946A1A83CF8C2F86958695837061
:1037500069F0813009F07BCF8D2F9C2F9370111170
:1037600002C090E080E00E94CA1871CF8D2F9C2F7C
:103770009370111102C090E080E00E94B41867CFEE
:103780008D2F112329F00E94B4130E9487145FCF5C
:103790000E940E14FACF8C2F837009F041C01111D2
:1037A00056CF4D2F429546954770440F440F0D2F2D
:1037B0000F7010E030E020E0042E04C0000F111F55
:1037C000221F331F0A94D2F760E070E0CB01D4FFD0
:1037D0000FC06FE070E080E090E004C0660F771FDC
:1037E000881F991F4A95D2F760957095809590959E
:1037F000C695C695C370602B712B822B932BC2305C
:1038000049F058F4C13019F00E94DD2020CF0E9409
:10381000CB201DCF0E94EF201ACF0E94C92017CFC6
:103820008695112311F08C2F8170882309F40FCF16
:103830004D2F429546954770440F440F0D2F0F7042
:1038400010E030E020E0042E04C0000F111F221F02
:10385000331F0A94D2F760E070E0CB01D4FF0FC0B1
:103860006FE070E080E090E004C0660F771F881F73
:10387000991F4A95D2F76095709580959095C69559
:10388000C695C370602B712B822B932BC23049F0ED
:1038900058F4C13019F00E94A221D9CE0E94902183
:1038A000D6CE0E94B421D3CE0E940521D0CECF70B7
:1038B000112329F08C2F0E942B218D2F12CF8D2FB9
:1038C0000E94BF1A8C2F0E944C21C1CED23F89F199
:1038D00060F4D03FC9F0D13F29F1112309F442C06F
:1038E00001119DCE8C2F8F7121C0D33F39F1D43F70
:1038F000A1F7112369F1CF718C2F0E942B2163E076
:103900008C2F0E946A23A3CE112341F0053008F0CA
:103910009ECE8C2F8F710E946F2199CE063008F0B9
:1039200096CEF7CF8C2F8F71112369F20E942B2135
:103930008ECE8C2F8F711123C9F3C5CF112329F09F
:103940008C2F8F710E94162182CE0E9411217FCE72
:1039500081E00E948523023008F479CE82E00E9443
:10396000852375CE002359F0D93309F0E9CE8FEFC6
:1039700097EEE3E081509040E040E1F7DFCE8C2FFE
:103980008F71A1CF4C2F4F706D2FC6010E94800AFE
:103990000E9441205CCE4C2F4F706D2FC6010E94BB
:1039A000830A55CEDF91CF911F910F91FF90EF9039
:1039B000DF90CF90BF9008950F931F93CF93DF9325
:1039C000EC01688179818A810E9467228C010E94C2
:1039D000C6210E94C820B801CE01DF91CF911F916E
:1039E0000F910C94C61ACF93DF93EC018B819C81CD
:1039F000892B29F08881998189238F3F59F4DF91A0
:103A0000CF910895CE010E94DC1CCE01DF91CF91B1
:103A10000C94FE08CE010E941F098111F3CF0E9471
:103A2000A922882361F38A81882349F382E0DF9108
:103A3000CF910C94852390E080E00E94B41890E030
:103A400080E00E94CA180E9404230E9414230E944E
:103A500034230E9430160C9487140E9499220C94EF
:103A60001B1D0E94F4220C942D1DE92FE295EF708E
:103A7000E250EE3070F4F0E0E455F24D0C94262D57
:103A8000803F19F020F4883E20F481E00895843FBF
:103A9000E1F380E00895883EC0F3813FD1F7F5CF90
:103AA00093FB882780F908950E945D220C94351DB0
:103AB000CF93DF9300D000D00F92CDB7DEB70F9039
:103AC0000F900F900F900F90DF91CF910895CF93AB
:103AD000DF9300D000D000D0CDB7DEB726960FB66A
:103AE000F894DEBF0FBECDBFDF91CF9108951F9335
:103AF000CF93DF93C091C90116E08091CA018C1366
:103B000004C0DF91CF911F910895D0E01C9FF00178
:103B10001D9FF00D1124E553FE4F408151816281BC
:103B20007381848195810E94671D2196C770E5CFBE
:103B30004091FB015091FC016091FD017091FE01EB
:103B40008091FF01909100020C94671D1F93CF9309
:103B5000DF9380910002807FA9F48091FD0188238A
:103B600089F08091C901C091CA016091FB017091F7
:103B7000FC01A091FE01B091FF01D62FD72316E0E2
:103B8000C81304C0DF91CF911F91089590E0109762
:103B900011F0DF3F19F401968770F2CF189F900162
:103BA000199F300D1124F901E553FE4F4181471350
:103BB000F2CF40814613EFCF42814111ECCF4381D8
:103BC00054814A1B5B0B483C510528F78091000249
:103BD0008F70806180930002F901E053FE4F808175
:103BE0008F70806180838BEF91E00E94F31CDF91E6
:103BF000CF911F910C94771DAF92BF92CF92DF921D
:103C0000EF92FF920F931F93CF93DF93CDB7DEB761
:103C100061970FB6F894DEBF0FBECDBF8C0185E073
:103C2000F801DE011D9601900D928A95E1F7F801E9
:103C300040815181E2808BEFC82E81E0D82E6091C7
:103C4000FE017091FF016115710509F461C1909148
:103C5000FB012091FC01892F82238F3F09F458C179
:103C6000A380B480F090FD01F501E61BF70BFF2067
:103C700009F4FCC080910002382F307FE83CF10548
:103C800008F0B2C0311179C0FE2C251323C0941363
:103C900021C0E1101FC08F708061809300020E94DC
:103CA000981DC6010E94F31C80910002F8018583D3
:103CB0008F2D61960FB6F894DEBF0FBECDBFDF919A
:103CC000CF911F910F91FF90EF90DF90CF90BF9019
:103CD000AF900895AB2829F0842F85238F3F09F0FA
:103CE00033C180E0F82FF170DF2E80FF3CC080915F
:103CF000C9012091CA0136E0821315C04D875E8745
:103D00008D859E850E945D22292F22952F7022305D
:103D1000F0F0243018F59F70F1F0F8019581907F54
:103D2000D1F4D12C1EC090E0389FF001399FF00DE6
:103D30001124E553FE4F6181651306C06081641351
:103D400003C062816E110FC001968770D5CF9F703E
:103D500011F0882331F3805E883018F3C8010E9487
:103D6000F31CFD2CA5CFEE2009F4A2CF8091000218
:103D7000816080930002F12C9BCF251306C0941321
:103D800004C0F801EE2009F48DC04D875E878D8553
:103D90009E850E94541D882319F1EE2009F180911F
:103DA0000002803270F02091FB013091FC013887D5
:103DB0002F831986BB86AA868C87CE0107960E9420
:103DC000F31C86E0F801ABEFB1E001900D928A950B
:103DD000E1F70E94A61D0E94981DFF24F39468CF6E
:103DE000C8010E94F31CF9CF311113C07A2DB98A92
:103DF000A88A6E2D89890E94581D8BEF91E00E9440
:103E0000F31C86E0F60111928A95E9F70E94981D4D
:103E1000B2CF25130FC094130DC0E1100BC0F801F1
:103E20008583C8010E94F31C86E0F60111928A95F1
:103E3000E9F73ECF4D875E878D859E850E94541D94
:103E4000882371F2EE2061F280910002803208F442
:103E5000B8CF2091FB013091FC013A8329831B826A
:103E6000BD82AC828E83CE010196A9CFE83CF105DC
:103E700008F041C0FE2CEE2009F4B2CF25132AC071
:103E8000941328C08091000280FD1BC0982F907F62
:103E9000C1F0F8018583903F31F0982F907F905FBB
:103EA0008F70892B8583C8010E94F31C86E0F8017E
:103EB000ABEFB1E001900D928A95E1F70E94981D59
:103EC000F7CE86E0F801ABEFB1E001900D928A9554
:103ED000E1F7EECE4D875E878D859E850E94541D4D
:103EE00081116FCF80910002816080930002C80130
:103EF0000E94F31CDDCE7A2DB98AA88A6E2D89899D
:103F00000E94581D86E0F60111928A95E9F7D6CFF6
:103F1000EE2009F465CF4D875E878D859E850E94D2
:103F2000541DF82E882309F45BCF86E0F801ABEF2F
:103F3000B1E001900D928A95E1F78BEF91E00E943C
:103F4000121A0E94A61DBACF81E08E25CBCE1F93F8
:103F5000CF93DF93CDB7DEB72C970FB6F894DEBFC3
:103F60000FBECDBF4F83588769877A878B879C8721
:103F7000CE0107960E94FC1D882369F08A859B85E7
:103F8000892B39F04F815885842F85238F3F09F085
:103F900071C016E05FC086E0FE013796DE01119623
:103FA00001900D928A95E1F78A859B85892B89F38B
:103FB0008F81988589238F3F61F32091CA0130E07A
:103FC000C9010196877099274091C90148171906C0
:103FD00071F40E94311D1092CA011092C90186E04D
:103FE000EBEFF1E0DF011D928A95E9F7D2CF96E081
:103FF000929FD001939FB00D1124A553BE4FFE0197
:10400000319601900D929A95E1F78093CA010E9432
:10401000771DBFCF819FC001112485539E4F0E9401
:10402000FC1D8823E9F0E091C9011E9FF0011124D5
:10403000E553FE4F40815181628173818481958176
:104040000E94671D8091C90190E0019687709927B1
:104050008093C9018091C9019091CA018913DACF77
:104060002C960FB6F894DEBF0FBECDBFDF91CF9177
:104070001F91089569857A858B859C850E94671DAF
:1040800088CFEF92FF920F931F93CF93DF938C0112
:10409000892B81F0F12CEE24E394E8012196F801BC
:1040A0008491843770F4843008F05FC08130B1F0BF
:1040B0008230A1F1DF91CF911F910F91FF90EF908E
:1040C0000895853709F44CC008F43DC09CE7980F6B
:1040D000903780F78F770E946A1A49C00E5F1F4F92
:1040E000FE01849190E2980F983060F48770FE2D65
:1040F00001C0FF0F8A95EAF78F2F0E9407230E94C5
:10410000342302C00E94171A8F2D815030F2EFE93C
:10411000FFE03197F1F700C00000F7CF0E5F1F4FAF
:10412000FE01849190E2980F983050F48770FE2D34
:1041300001C0FF0F8A95EAF78F2F0E940D23DFCF72
:104140000E946A1AE1CF0E5F1F4FFE01C491C15059
:10415000D8F28FE99FE00197F1F700C00000F7CF98
:104160000E5F1F4FFE01F490CFCF0E94171A8E01F1
:10417000CBCF08950C94B9200E94BA2060931E0200
:1041800070931F0280932002909321020C941B1DB8
:1041900008950C94BC200F931F9300911E02109160
:1041A0001F022091200230912102602B712B822B63
:1041B000932B1F910F910C94BC200F931F93009190
:1041C0001E0210911F0220912002309121026023D3
:1041D0007123822393231F910F910C94BC200F9382
:1041E0001F9300911E0210911F0220912002309116
:1041F000210260277127822793271F910F910C942A
:10420000BC200C94B9200C9401210E9403216093DE
:104210001A0270931B0280931C0290931D020C944F
:104220001B1D60E070E0CB010C9405210F931F93E0
:1042300041E050E060E070E08A019B0104C0000FA3
:10424000111F221F331F8A95D2F7C901B8011F9190
:104250000F910C9405210F931F9341E050E060E013
:1042600070E004C0440F551F661F771F8A95D2F770
:1042700080911A0290911B02A0911C02B0911D0224
:104280008A019B01082B192B2A2B3B2BC901B80152
:104290001F910F910C9405210F931F9341E050E063
:1042A00060E070E004C0440F551F661F771F8A95B9
:1042B000D2F7CB01BA0160957095809590950091E9
:1042C0001A0210911B0220911C0230911D026023E2
:1042D0007123822393231F910F910C9405210F9337
:1042E0001F9341E050E060E070E004C0440F551FB0
:1042F000661F771F8A95D2F780911A0290911B0250
:10430000A0911C02B0911D028A019B010827192768
:104310002A273B27C901B8011F910F910C94052151
:104320000F931F9300911A0210911B0220911C02FF
:1043300030911D02602B712B822B932B1F910F91BB
:104340000C9405210F931F9300911A0210911B02E8
:1043500020911C0230911D0260237123822393233C
:104360001F910F910C9405210F931F9300911A0236
:1043700010911B0220911C0230911D0260277127B1
:10438000822793271F910F910C940521089527E010
:10439000929F800D1124982F977041E001C0440F27
:1043A0009A95EAF786958695869595E0899FF0011E
:1043B0001124EF5FFD4F90E080E070E05191DF014C
:1043C00011979B01082E02C0369527950A94E2F7B3
:1043D000217021952527242325272C9301968530AC
:1043E000910561F7089527E0929F800D1124982F81
:1043F000977086958695869525E0829FF001112419
:10440000EF5FFD4F50E040E080E0219130E0092E69
:1044100002C0369527950A94E2F721703327042EBF
:1044200001C0220F0A94EAF7822B4F5F5F4F45309D
:10443000510559F70895BF92CF92DF92EF92FF9204
:104440000F931F93CF93DF938C01C0901A02D090EB
:104450001B02E0901C02F0901D0280911E029091C0
:104460001F02A0912002B0912102C82AD92AEA2A6B
:10447000FB2ACFE1D0E0BC2ED701C6010C2E04C030
:10448000B695A795979587950A94D2F780FD0EC0AB
:10449000219788F7B12C8B2DDF91CF911F910F9130
:1044A000FF90EF90DF90CF90BF900895B8018C2FD0
:1044B0000E94A00A019761F3EECFCF93DF93EC0146
:1044C0000E941B22BE01DF91CF910C94A00A1F9382
:1044D000CF93DF93EB019091C801992331F0CB0189
:1044E000DF91CF911F910C945D22882379F0CB014D
:1044F0000E941B22182F682FCE010E94C721BE01E7
:10450000812FDF91CF911F910C94A00ACB010E94C3
:10451000F321182FF4CF682F8091080190910901A1
:104520000C949B24682F80910801909109010C94B0
:104530009D2480910801909109010C949F24809101
:104540002202859585958595089580912202877030
:10455000089590912202977081E009F480E0089517
:10456000CF93C82F80913F0282FB992790F99C1727
:10457000D1F0C0FB82F980933F0280913E0290917E
:104580003F020E94C82380912F0280FF0CC01F921F
:10459000CF9385EA9CE09F938F930E941F080F9012
:1045A0000F900F900F90CF91089580913F0282FB62
:1045B000882780F991E089270C94B02281E00C943F
:1045C000B02280E00C94B02280912E020895909148
:1045D0002E02892B80932E020895809590912E02B1
:1045E000982390932E02089510922E020895909190
:1045F0002D02892B80932D020895809590912D0294
:10460000982390932D02089510922D020895909171
:104610002C02892B80932C020895809590912C0276
:10462000982390932C02089510922C020895809163
:104630002302089508950C941A2390913F0292FD4D
:1046400008C090912302981721F0809323020C94C4
:104650001B23089580912302882329F010922302BE
:1046600080E00C941B230895E0910801F09109016A
:1046700080912E028083E0910801F09109018081F0
:1046800090912D02892B8083E0910801F09109011E
:10469000808190912C02892B808390912302992311
:1046A00081F0E0910801F09109018081892B8083DC
:1046B00080910801909109010E94532481110E9468
:1046C0002A2380910801909109010C945A180895A9
:1046D0000C94672390913F0292FD10C098E0899F4F
:1046E00090011124622B609322020E942B21809161
:1046F00022028595859585950C9468230C942B2131
:104700001092220280E00C946823909122028095FE
:10471000892380932202282F277039F4282F082E0E
:10472000000C330B9217130621F490913F0292FF75
:1047300007C08595859585950E944C210C94802312
:1047400008956FEF7FEF90E080E00C946C2D90E087
:1047500080E00E94482D21E08A3E9E4F09F020E033
:10476000822F089582E090E00C94402D83E090E049
:104770000C94402DCF9384E090E00E94402DC82FF0
:1047800082E290E00E94402D982F8C2FCF910895C7
:10479000CF93C92F682F84E090E00E944E2D6C2F9C
:1047A00082E290E0CF910C944E2DAB01BC018FE0E2
:1047B00090E00C94602DAB01BC0183E190E00C947F
:1047C000602D60E070E0CB010C94DB2360E070E0D2
:1047D000CB010E94D5230C94E1236AEE7EEF90E09A
:1047E00080E00E946C2D60E082E090E00E944E2DFF
:1047F00060E083E090E00E944E2D10921E02109225
:104800001F02109220021092210260E084E090E0EA
:104810000E944E2D60E082E290E00E944E2D60E00A
:1048200085E090E00E944E2D60E086E090E00E94DE
:104830004E2D6FEF87E090E00E944E2D40E050E05B
:10484000BA0188E090E00E94602D60E08DE090E089
:104850000E944E2D40E050E0BA0188E190E00E94B5
:10486000602D60E087E190E00E944E2D40E050E036
:10487000BA018CE190E00E94602D70E060E080E27F
:1048800090E00E946C2D40E050E0BA0188E190E099
:104890000E94602D0C94E6230C94ED23682F8EE08B
:1048A00090E00C944E2D9C012E5F3F4FAC01485F71
:1048B0005F4F80E02417350709F40895F9019191BD
:1048C0009F019923B9F38F5FF5CF662349F0FC016F
:1048D000329608962191261729F0E817F907D1F7A3
:1048E00080E0089581E008959C01FC0132969FEFDD
:1048F00080E04191461751F09F3F19F4411101C0EA
:10490000982F8F5F8630A9F79F3F09F40895290FEC
:10491000311D97FD3A95F90162830895FC013296A5
:1049200008962191261303C0DF0111971C92E81706
:10493000F907B9F708950C9474240C948E24029608
:1049400026E0FC0111922A95E9F70895089508954B
:104950000C94A72480915202843049F10E94A8242B
:1049600080E00E94780A1092300288E190E020E412
:104970000FB6F894A895809360000FBE2093600056
:1049800083B7817F846083BF83B7816083BF78945E
:10499000889583B78E7F83BF0FB6F894A8958091D2
:1049A0006000886180936000109260000FBE0895DF
:1049B0000895CF930E94A6240E94790D0E94D824C6
:1049C000C0E08C2F0E94D40C811105C0CF5FC53090
:1049D000C1F7CF91089581E0FCCF08950C94ED24A8
:1049E0000E94311D0E944E180E94780A0C94EE24F9
:1049F0001F921FB61F9211248F939F93AF93BF9363
:104A000080913002811113C080914A0290914B0233
:104A1000A0914C02B0914D024196A11DB11D809311
:104A20004A0290934B02A0934C02B0934D02BF9167
:104A3000AF919F918F911F901FBE1F90189582E09C
:104A400084BD93E095BD9AEF97BD80936E00089565
:104A50002FB7F89480914A0290914B02A0914C029A
:104A6000B0914D022FBF08952FB7F89460914A027C
:104A700070914B0280914C0290914D022FBF08958E
:104A80009C014FB7F89480914A0290914B02A091FB
:104A90004C02B0914D024FBF821B930B0895789446
:104AA0001F921FB61F9211248F939F93AF93BF93B2
:104AB00080914A0290914B02A0914C02B0914D021C
:104AC0000196A11DB11D80934A0290934B02A093C1
:104AD0004C02B0934D02BF91AF919F918F911F9067
:104AE0001FBE1F90189581E08093E00080E28093C4
:104AF000D8001092C9008FE19EE40197F1F700C041
:104B0000000087E090EBDC0180935B0290935C02F5
:104B1000A0935D02B0935E0288E19CE00FB6F8942A
:104B2000A895809360000FBE90936000FFCF909394
:104B30009D0180939C01089580913C020895CF933C
:104B4000DF9300D00F92CDB7DEB790915202943030
:104B500019F589837B836A8382E08093E9008FEF74
:104B60009091E800815095FD06C095ED9A95F1F77A
:104B700000008111F5CF8091E80085FF0DC050E065
:104B800040E063E070E0CE0101960E9476288091BB
:104B9000E8008E778093E8000F900F900F90DF91E0
:104BA000CF910895BC0184E00C949F25BC0183E063
:104BB0000C949F259C0182E08093E9009FEF8091F7
:104BC000E800915085FD06C085ED8A95F1F700005B
:104BD0009111F5CF8091E80085FF0CC050E040E0D6
:104BE00066E070E0C9010E9476288091E8008E7727
:104BF0008093E8000895CF93DF93EC0181E08093E8
:104C0000E9008FEF9091E800815095FD06C095ED89
:104C10009A95F1F700008111F5CF8091E80085FFAA
:104C200014C050E040E068E070E0CE010E947628B9
:104C30008091E8008E778093E80088E0FE01A4E38D
:104C4000B2E001900D928A95E1F7DF91CF9108953E
:104C50008FED9CE00E94860780915102811109C06E
:104C60000E94062A0E94632A8091E2008460809359
:104C7000E20008958BED9CE00E948607109251029D
:104C8000089587ED9CE00C94860783ED9CE00C94DE
:104C900086078FEC9CE00C948607209132022F5FF0
:104CA000822F62E30E94062D992319F0209332028D
:104CB000089510923202809133028823F1F080919E
:104CC00052028430C1F49091E9009F702091EC0071
:104CD000822F817020FD80E8892B93E09093E9007A
:104CE0009091EB0090FF04C09091EE0097FD08C0FA
:104CF0008F708093E9001092330208951092F100B2
:104D00009091E80095FDFACF9091E80090FFF0CFE8
:104D10009091E8009E779093E800EACF42E061EC42
:104D200081E00E94822942E261EC82E00E948229B5
:104D300042E261EC83E00C9482298091540283303A
:104D400009F45FC030F48130C1F1823009F49BC0B6
:104D500008958A3009F487C08B3009F46DC089301A
:104D600009F04EC080915302813209F049C0809110
:104D7000570290915802029708F042C08091E800D3
:104D8000877F8093E8008091E80082FF35C0909192
:104D9000F3008091F200029729F48091F1008B7F5B
:104DA000813021F48091F10080933C028091E800F1
:104DB0008B778093E8000C94B62980915302813A56
:104DC000F9F48091E800877F8093E8008091570292
:104DD00090915802892B61F468E084E392E070E0DE
:104DE0000E94C5288091E8008B778093E8000895A1
:104DF00060E090E080E0F3CF809152028111C3CF58
:104E0000089580915302813AD9F780915702909189
:104E10005802892BA9F78091E800877F8093E800EA
:104E20008091E80080FFFCCF809114018093F10015
:104E30008091E8008E77BDCF80915302813201F7D7
:104E40008091570290915802892BD1F68091E80009
:104E5000877F8093E8000E94B62980915502809355
:104E600014010C94311D80915302813249F68091D6
:104E7000E800877F8093E8000E94B629809156025F
:104E800080933D02089580915302813A09F0B8CF92
:104E90008091E800877F8093E8008091E80080FFA0
:104EA000FCCF80913D02C2CF9FB7F894109233029D
:104EB0009FBF90915202943009F048C02091E900C0
:104EC0002F703091EC00932F917030FD90E8922B71
:104ED00023E02093E9002091EB0020FF34C02091D3
:104EE000EE0027FF30C020913102222321F02091D3
:104EF000E80025FF28C01092310226E03091E8003A
:104F000035FF14C08093F1008091E80085FD27C033
:104F10008091E80080FFFCCF8091E8008E7780933D
:104F2000E8009F709093E90080E00895309152026C
:104F3000343049F43091EB0035FD05C0215041F487
:104F400081E0809331029F709093E9008FEF089584
:104F5000EFE9FFE03197F1F700C00000CFCF8FB746
:104F6000F89421E0209333028FBFDBCF84B7877F93
:104F700084BF0FB6F894A8958091600088618093F3
:104F80006000109260000FBE80E890E00FB6F894C9
:104F900080936100909361000FBE0E9401190E94EE
:104FA000062A0E94632A8091E20084608093E200D6
:104FB00078940E94EB2C0E9415198AE091E00E94DF
:104FC00049188EEB9CE00E94860780915202853042
:104FD00051F48AEB9CE00E94860780915202853052
:104FE00039F00E94F0240E9443190E941119EDCF5C
:104FF0000E94AA2480915002882379F30E94D92428
:10500000882359F30E9460280E94311DE6CF0C943A
:105010000928292F33272330310521F168F4213065
:10502000310509F443C02230310509F444C090E051
:1050300080E030E020E026C02132310551F12232FB
:105040003105A9F76330710590F7FB01EE0FFF1FE3
:10505000E057FE4F2081318163577E4FFB018081F5
:1050600090E010C099278130910581F0009729F0D8
:105070000297E9F6E3EEFCE002C0E3E1FDE0849193
:1050800090E09F01FA01318320830895E7EFFCE06F
:10509000F6CF6330710558F6660F771FFB01EA56AD
:1050A000FE4F2081318189E090E0ECCF82E190E0F9
:1050B00022E73DE0E7CF8BE590E027E13DE0E2CF5E
:1050C00080E189BD82E189BD09B400FEFDCF8091F8
:1050D000D8008F7D8093D8008091E000826080931B
:1050E000E0008091E00081FDFCCF0895AF92BF9277
:1050F000CF92DF92FF920F931F93CF93DF936C01B8
:10510000EB018A010E94D529F82E811123C00115D7
:10511000110539F0F80180819181C81BD90BC80EA7
:10512000D91EB12CA12C2097A9F08091E80085FD13
:1051300022C08091E8008E778093E8000115110568
:10514000A1F0F80180819181A80EB91EB182A082E0
:1051500085E0F82E8F2DDF91CF911F910F91FF9059
:10516000DF90CF90BF90AF9008950E94D5298823FB
:10517000D1F2F82EEFCFF60181916F018093F1000B
:105180002197FFEFAF1ABF0ACECFFC0180915902E1
:1051900090915A0286179707A0F06115710529F4BE
:1051A0009091E8009E779093E80090E0611571057A
:1051B00051F4911108C08091E80082FF34C080E072
:1051C0000895BC01F2CF809152028823C1F185304D
:1051D000C1F18091E80083FD30C08091E80082FD3C
:1051E000EACF8091E80080FFE1CF8091F300209129
:1051F000F200382F6115710519F02830310558F08B
:1052000091E02830310509F090E02091E8002E77F8
:105210002093E800CBCF81918093F1006150710918
:105220002F5F3F4FE7CF80915202882341F08530B6
:1052300041F08091E80083FFBECF81E0089582E0D5
:10524000089583E00895FC018091590290915A02DB
:1052500086179707A0F06115710529F48091E80081
:105260008E778093E80090E06115710551F49111FB
:1052700008C08091E80082FF35C080E00895BC013D
:10528000F2CF809152028823C9F18530C9F1809113
:10529000E80083FD31C08091E80082FDEACF809173
:1052A000E80080FFE1CF8091F3002091F200382FD9
:1052B0006115710519F02830310558F091E028305A
:1052C000310509F090E08091E8008E778093E80046
:1052D000CBCF84918093F1003196615071092F5F9B
:1052E0003F4FE6CF80915202882341F0853041F054
:1052F0008091E80083FFBDCF81E0089582E00895AA
:1053000083E00895982F973028F08F708093E900FC
:1053100081E008959093E900242F762F50E09817AC
:1053200031F07091EC002091ED005091F00021FDE2
:1053300002C09F5FE8CF3091EB003E7F3093EB00DF
:105340003091ED003D7F3093ED003091EB00316006
:105350003093EB007093EC002093ED005093F0003D
:105360002091EE0027FDE5CF80E008958091530263
:1053700087FF13C08091E80082FF06C08091E8009B
:105380008B778093E80004C0809152028111F2CFA4
:105390000895809152028823D9F38091E80080FF1C
:1053A000F8CF8091E8008E77ECCF2091E400309127
:1053B000E50095E6A9012091EC00822F817020FF85
:1053C00006C08091E80080FF06C080E0089520912B
:1053D000E80022FD1AC080915202882389F08530AE
:1053E00089F08091EB0085FD0FC02091E4003091A1
:1053F000E50042175307F9F29150E1F684E0089571
:1054000082E0089583E0089581E008950E94742A5F
:105410000E947C2AE0EEF0E0808181608083E8EDEC
:10542000F0E080818F77808319BCA7EDB0E08C918C
:105430008E7F8C9380818F7E80831092510208959D
:105440000F931F93CF93DF930E94742A0E947C2AAC
:10545000C8EDD0E088818F778883888180688883D1
:1054600088818F7D888319BC1092520210924E025F
:105470001092500210924F0200EE10E0F80180816D
:105480008B7F808388818160888342E060E080E058
:105490000E948229E1EEF0E080818E7F8083E2EE3F
:1054A000F0E0808181608083808188608083F80162
:1054B00080818E7F8083888180618883DF91CF9116
:1054C0001F910F910895E8EDF0E080818F7E808339
:1054D000E7EDF0E080818160808384E082BF81E03D
:1054E000809351020C94202AE8EDF0E080818E7FB9
:1054F00080831092E20008951092DA001092E10089
:1055000008951F920F920FB60F9211242F933F937D
:105510004F935F936F937F938F939F93AF93BF93BB
:10552000EF93FF938091E10082FF0BC08091E20036
:1055300082FF07C08091E1008B7F8093E1000E9491
:105540004D268091DA0080FF19C08091D80080FF3D
:1055500015C08091DA008E7F8093DA008091D900A7
:1055600080FF96C080E189BD82E189BD09B400FE5B
:10557000FDCF81E0809352020E9428268091E100B5
:1055800080FF19C08091E20080FF15C08091E20089
:105590008E7F8093E2008091E20080618093E20040
:1055A0008091D80080628093D80019BC85E08093F8
:1055B00052020E9445268091E10084FF2BC0809119
:1055C000E20084FF27C080E189BD82E189BD89B501
:1055D000982F917080FFFBCF8091D8008F7D8093B2
:1055E000D8008091E1008F7E8093E1008091E200FD
:1055F0008F7E8093E2008091E20081608093E200E0
:1056000080914E02882309F449C084E080935202BD
:105610000E9449268091E10083FF29C08091E20029
:1056200083FF25C08091E100877F8093E10082E0C5
:105630008093520210924E028091E1008E7F8093FF
:10564000E1008091E2008E7F8093E2008091E20091
:1056500080618093E20042E060E080E00E94822965
:105660008091F00088608093F0000E944126FF91B5
:10567000EF91BF91AF919F918F917F916F915F91CA
:105680004F913F912F910F900FBE0F901F90189543
:1056900019BC109252020E943A2670CF8091E3000A
:1056A00087FD93E090935202B3CF1F920F920FB6F3
:1056B0000F9211242F933F934F935F936F937F9398
:1056C0008F939F93AF93BF93CF93DF93EF93FF930A
:1056D000D091E900DF708091EC00C82FC17080FD8F
:1056E000C0E81092E9008091F000877F8093F0007D
:1056F00078940E94992B1092E9008091F0008860C4
:105700008093F000CD2BCF70C093E900FF91EF9113
:10571000DF91CF91BF91AF919F918F917F916F91C9
:105720005F914F913F912F910F900FBE0F901F905F
:1057300018951F93CF93DF93CDB7DEB7AA970FB617
:10574000F894DEBF0FBECDBF83E592E02091F1005B
:10575000FC012193CF01F2E08B359F07B9F70E943E
:105760009D268091E80083FF1EC180915302909195
:1057700054029A3008F017C1E92FF0E0E654F24DD8
:105780000C94262D803899F0823809F00CC1809154
:1057900057028F70873008F006C18093E90080912E
:1057A000EB0085FB882780F91092E90006C0809104
:1057B0004F0290915002911182609091E800977F82
:1057C0009093E8008093F1001092F1008091E8003E
:1057D0008E77E5C0882309F4D3C0823009F0E3C096
:1057E000809155028111D6C0809157028F702FEFA2
:1057F000280F263008F0D7C08093E9002091EB00F5
:1058000020FFC8C0933031F48091EB008062809318
:10581000EB00C0C09091EB0090619093EB0021E011
:1058200030E001C0220F8A95EAF72093EA00109237
:10583000EA008091EB008860EACF8111B4C010913A
:1058400055021F778091E3008078812B8093E300DD
:105850008091E800877F8093E8000E94B6298091BC
:10586000E80080FFFCCF8091E30080688093E30034
:1058700082E0111183E08093520295C080588230FB
:1058800008F091C080915502909156028C3D23E022
:105890009207A1F583E08A838AE289834FB7F8945F
:1058A000DE01139620E03EE051E2E32FF0E050935A
:1058B0005700E49120FF03C0E295EF703F5FEF7067
:1058C0008E2F90E0EA30C0F0C7968D939D932F5FA6
:1058D000243159F74FBF8091E800877F8093E8001B
:1058E0006AE270E0CE0101960E94C5288091E8002E
:1058F0008B778093E80057C0C096E7CF609157023E
:1059000070915802AE014F5F5F4F0E940728BC01A3
:10591000892B09F448C09091E800977F9093E800A4
:1059200089819A810E942329E1CF8038E1F5809115
:10593000E800877F8093E80080914E028093F10019
:1059400045CF811130C090915502923060F5809121
:10595000E800877F8093E80090934E020E94B6296A
:1059600080914E02882311F084E005C08091E3000D
:1059700087FDFACF81E0809352020E948E2613C0E9
:1059800080915502813079F481E0933009F080E014
:10599000809350021092E9008091E800877F809305
:1059A000E8000E94B6298091E80083FF0AC0809138
:1059B000E800877F8093E8008091EB00806280930D
:1059C000EB00AA960FB6F894DEBF0FBECDBFDF91F5
:1059D000CF911F910895CF93809152028823A1F017
:1059E000C091E900CF709091EC00892F817090FDFB
:1059F00080E8C82B1092E9008091E80083FD0E94A6
:105A0000992BCF70C093E900CF910895991B79E04D
:105A100004C0991F961708F0961B881F7A95C9F73E
:105A20008095089597FB072E16F4009407D077FD14
:105A300009D00E942C2D07FC05D03EF4909581954D
:105A40009F4F0895709561957F4F0895EE0FFF1F4A
:105A50000590F491E02D0994AA1BBB1B51E107C0EE
:105A6000AA1FBB1FA617B70710F0A61BB70B881FEE
:105A7000991F5A95A9F780959095BC01CD0108957D
:105A8000F999FECF92BD81BDF89A992780B5089506
:105A9000A8E1B0E042E050E00C94742D262FF99973
:105AA000FECF92BD81BDF89A019700B4021639F07D
:105AB0001FBA20BD0FB6F894FA9AF99A0FBE08954E
:105AC0000396272F0E944F2D0E944E2D252F0E94B6
:105AD0004F2D242F0C944F2D0196272F0E944F2DD0
